S0150000545031656E7472656761626C652E7372656321
S11300000C9434000C943E000C943E000C943E007E
S11300100C943E000C943E000C943E000C943E0064
S11300200C943E000C943E000C943E000C943E0054
S11300300C943E000C943E000C943E000C943E0044
S11300400C943E000C943E000C943E000C943E0034
S11300500C943E000C943E000C943E000C943E0024
S11300600C943E000C943E0011241FBECFEFD8E048
S1130070DEBFCDBF0E9454000C94A1000C9400007C
S1130080309910C08FE39CE90197F1F700C000009C
S1130090309BFECF8FE39CE90197F1F700C000008D
S11300A081E0089580E00895CF93DF9300D000D0DD
S11300B0CDB7DEB781E8898382E48A8384E28B83C7
S11300C088E18C838FEF84B98EEF87B981E088B99A
S11300D013E017C01F5F143009F410E0E1E0F0E012
S11300E0EC0FFD1FE10FF11D17FDFA95808185B915
S11300F02FEF80E792E0215080409040E1F700C06C
S113010000000E944000882329F316C0115008F40F
S113011013E0E1E0F0E0EC0FFD1FE10FF11D17FD2E
S1130120FA95808185B92FEF80E792E021508040D5
S11301309040E1F700C000000E944000882331F3A2
S1090140E0CFF894FFCFAC
S9030000FC
